:100000000C9494110C94C5110C94C5110C94371BCD
:100010000C940B1B0C948E1B0C94631B0C94C5113D
:100020000C94C5110C94C5110C94C5110C94C511F8
:100030000C94C5110C94B02D0C94C5110C94662E23
:100040000C94C5110C94E5B50C94C5110C94C51114
:100050000C94C5110C94C5110C94C5110C94C511C8
:100060000C94C5110C94579F0C94092D0C94C51138
:100070000C94C5110C94C5110C948DA90C94302DC1
:100080000C94D0B40C94B2B50C94C5110C94C51159
:100090000C94C5110C94C5110C94C5110C94C51188
:1000A0000C94C5110C94C5110C94C5110C94C51178
:1000B0000C94C5110C94C5110C94C5110C942917FE
:1000C0000C94C5110C94C5110C94C5110C94C51158
:1000D0000C94C5110C94C5110C94C5110C94C51148
:1000E0000C94C511C413C413D413D413D413D41350
:1000F000AB13B213D413B713B713BB13C213AB13A1
:10010000BB13D413D413C413C613C413D413D413FE
:10011000D413BB13C813C013D413D413D413AB1309
:10012000AB13B213B713B713BB13C213C013D4135B
:10013000D413D413C413C413E41BE91BEF1BF51B26
:10014000E01BD41BDA1BEF1BFC1B1730293044309B
:10015000B130C930BA31BA31BA31BA31E932E932E3
:10016000DC32E6324D3222322232263226322B3235
:100170002B326E3271329332933293329332933206
:10018000933247324D324D32503268326B325332F5
:10019000533253328D3259325F32933229322932FF
:1001A0006E326E32713293329332933293325F32C7
:1001B00047324D324D325032A953B753C653CE5405
:1001C0006055E855F555025637564D565E567356EE
:1001D0008456C756B853C753CF546155E955F655A1
:1001E000035638564E565F56745685569A6E706E44
:1001F000706EB06EB06E776E776EB46EB46EB46EB5
:10020000B46EB46EB46EB46EB46E986E9A6E9A6E2E
:100210009D6EA06EA26EA46EA46EA46EB26EA66E4B
:10022000AD6EB46E766E766EB46EB46EB46EB46E41
:10023000B46EB46EB46EAD6E986E9A6E9A6E9D6E1C
:10024000A26E107FC47F638066809480DC80FB8018
:100250001A811D816C813C8153819181B081B6816D
:10026000DC81C88104821D8249825E82788787870B
:100270009487F2874F88608870887787868793870E
:10028000F1874E885F88708856A32EA332A337A3C8
:100290003EA342A347A3CBABE9ABA4ACDEACDEAC40
:1002A000CBABE9ABA4ACDEACDEACCCADCFADCFAD6F
:1002B00056AE5CAE7FAEAAAEDAAE00AF31AF71AF74
:1002C00071AF71AF71AF31AF71AF71AF71AF71AF6E
:1002D00048C057C046C157C057C057C046C157C095
:1002E00057C073C185C1DBC1F8C10AC230C244C264
:1002F0005DC2FCC24BC3CBC3466F726D6174616754
:100300006520454550524F4D00454550524F4D20B8
:10031000636F72726F6D70756500454550524F4D39
:1003200000535053008040FFFFFFFFFFFFFFFFFF20
:10033000FFFFFFFFFFFFFFFFFFFFFFFFFFFFFFFFCD
:10034000FFFFFFFFFFFFFFFFFFFFFFFFFFFFFFFFBD
:10035000FFFFFFFFFFFFFFFFFFFFFFFFFFFFFFFFAD
:10036000FFFFFFFFFFFFFFFFFFFFFFFFFFFFFFFF9D
:10037000FFFFFFFFFFFFFFFFFFFFFFFFFFFFFFFF8D
:10038000FFFFFFFFFFFFFFFFFFFFFFFFFFFFFFFF7D
:10039000FFFFFFFFFFFFFFFFFFFFFFFFFFFFFFFF6D
:1003A000FFFFFFFFFFFFFFFFFFFFFFFFFFFFFFFF5D
:1003B000FFFFFFFFFFFFFFFFFFFFFFFFFFFFFFFF4D
:1003C000FFFFFFFFFFFFFFFFFFFFFFFFFFFFFFFF3D
:1003D000FFFFFFFFFFFFFFFFFFFFFFFFFFFFFFFF2D
:1003E000FFFFFFFFFFFFFFFFFFFFFFFFFFFFFFFF1D
:1003F000FFFFFFFFFFFFFFFFFFFFFFFFFFFFFFFF0D
:10040000FFFFFFFFFFFFFFFFFFFFFFFFFFFFFFFFFC
:10041000FFFFFFFFFFFFFFFFFFFFFFFFFFFFFFFFEC
:10042000FFFFFFFFFFFFFFFFFFFFFFFFFFFFFFFFDC
:10043000FFFFFFFFFFFFFFFFFFFFFFFFFFFFFFFFCC
:10044000FFFFFFFFFFFFFFFFFFFFFFFFFFFFFFFFBC
:10045000FFFFFFFFFFFFFFFFFFFFFFFFFFFFFFFFAC
:10046000FFFFFFFFFFFFFFFFFFFFFFFFFFFFFFFF9C
:10047000FFFFFFFFFF070707070707070707070734
:100480000707070707070707FFFFE7C7070707076C
:1004900007071F7FFFFFFF3F0F070707070787E7D4
:1004A000F7FFFFFFFFFFFFFFFFFFFFFFFF1F070338
:1004B00003C1F1F8F8F8F8F0F1C10303071FFFFFDB
:1004C000FF00000000F8F8F87000010307FFFF00CC
:1004D000000000383838383838FFFF00000000814D
:1004E000030F1F3FFFFF00000000FFFFFF0001039D
:1004F000070F1F3F7FFEFEFEFEFEFE000000000015
:100500000000FEFEFEFEFEFEFFFFFFFFFFFEF8F016
:10051000C08000000103000000C0E0F8FCFFFFFF06
:10052000FFFFFFFFFFFFFFFFFFFFFFFFFFF8E0C040
:10053000C0838F1F1F1F1F1F8F83C0C0E0F8FFFFE6
:10054000FF00000000F8F8F8F8F8FCFCFFFFFF00DF
:100550000000001E1E1E1E1E1EFFFF00000000FFEA
:10056000FFFCF8F0C08100000000FFFFFF000080EA
:10057000C0E0F0F8FCFEFFFFFFFFFF0000000000FE
:100580000000FFFFFFFFFFFFFFFFFFFF7F1F0F03C5
:1005900001000080E0F0C000000003071F3FFFFFE4
:1005A000FFFFFFFFFFFFFFFFFFFFFFFFFFE7E7E7A3
:1005B000E7E7E7E7E7E7E7E7E7E7E7E7E7E7E7E7CB
:1005C000E7E7E7E7E7E7E7E7E7E7E7E7E7E7E7E7BB
:1005D000E7E7E7E7E7E7E7E7E7E7E7E7E7E7E7E7AB
:1005E000E7E7E7E7E7E7E7E7E7E7FFFFFFFEFFFF0C
:1005F000FFFFFFFFFFFFFFFFFFFFFFE0E0E0E0E0A6
:10060000E0E0FFFFFFFFFFFFEFE7E1E0E0E0E0E019
:10061000F0F8FEFFFFFFFFFFFCF8E0E0E0E0E0E1C4
:10062000E7EFFFFFFFFFFFFFFFFFFFFFFFFFFFFF02
:10063000FFFFFFFFFFFFFFFFFFFFFFFFFFFFFFFFCA
:10064000FFFFFFFFFFFFFFFFFFFFFFFFFFFFFFFFBA
:10065000FFFFFFFFFFFFFFFFFFFFFFFFFFFFFFFFAA
:10066000FFFFFFFFFFFFFFFFFFFFFFFFFFFFFFFF9A
:10067000FFFFFFFFFFFFFFFFFFFFFFFFFFFFFFFF8A
:10068000FFFFFFFFFFFFFFFFFFFFFFFFFFFFFFFF7A
:10069000FFFFFFFFFFFFFFFFFFFFFFFFFFFFFFFF6A
:1006A000FFFFFFFFFFFFFFFFFFFFFFFFFFFFFFFF5A
:1006B000FFFFFFFFFFFFFFFFFFFFFFFFFFFFFFFF4A
:1006C000FFFFFFFFFFFFFFFFFFFFFFFFFFFFFFFF3A
:1006D000FFFFFFFFFFFFFFFFFFFFFFFFFFFFFFFF2A
:1006E000FFFFFFFFFFFFFFFFFFFFFFFFFFFFFFFF1A
:1006F000FFFFFFFFFFFFFFFFFFFFFFFFFFFFFFFF0A
:10070000FFFFFFFFFFFFFFFFFFFFFFFFFFFFFFFFF9
:10071000FFFFFFFFFFFFFFFFFFFFFFFFFFFFFFFFE9
:10072000FFFFFFFFFFFFFF53504500416C61726DFB
:1007300065732044807361637469768065730053C8
:100740004F4E00436172746520534420706C65699C
:100750006E65002E637376002F4C4F4753005B4D40
:10076000454E555D085B455849545D0053617576AB
:10077000656761726465206D6F64816C652E2E2ED5
:1007800000415252455420454E20434F555253008C
:100790001B1E272D36394B4E636C7278878D939CC8
:1007A000B1B4C6C9D2D8E1E4454550524F4D20708E
:1007B0006C65696E652100494E5445525300546F73
:1007C0007563686520706F75722069676E6F7265FA
:1007D000720047617A207061732082207A80726F84
:1007E0000047415A00546F7563686520706F7572D9
:1007F00020636F6E74696E756572005375707072E8
:10080000696D657200466F726D6174657200496E44
:10081000666F726D6174696F6E00436172746520FA
:100820005344003F7E361D1275157248732A72F8C4
:1008300074457272657572206361727465205344E9
:1008400000466F726D61746167652E2E2E004E4FEB
:100850002044415441004163633A00034F46464FF0
:100860004E00032D2D2D494E5604013443480136C8
:1008700043480138434831304348313243483134EA
:1008800043483136434805417563756E416C61726A
:100890006D4E6F4B6579546F757400034E6F6E52D9
:1008A000456152456203524561524562034F4646D7
:1008B000202B3D203A3D03434831434832434833DF
:1008C000434834064578706F0020457846696E00CD
:1008D00046696E0020204D6F79656E0047726F7318
:1008E0000020014450474131323361620650504D7F
:1008F00000202050504D31360050504D73696D032B
:10090000504F534E4547044F46460042746E734362
:1009100074726C546F75734F4E00032D2D2D783EFD
:1009200030783C307C787C663E30663C307C667C3F
:1009300008416A6F75746500204D756C7469706C40
:100940002E52656D706C616365022B3D2A3D3A3D08
:10095000034F46464F4E0044697250726647617AB3
:1009600041696C052D2D2D0020617B780020613EB2
:10097000780020613C7800207C617C3E787C617C42
:100980003C7845540020204F550020204F555800FA
:1009900020613D620020613E620020613C620020D7
:1009A0005E7D7800207C5E7C7D7854656D700042B1
:1009B000697374000D52656D706C2E00202020202C
:1009C000202045636F6C6167650020202020205443
:1009D00072696D20696E7374616E742E52656D69F3
:1009E000736520822030002020416A75737465721F
:1009F0000020202020204A6F75657220736F6E00E2
:100A00002020204A6F756572206669636800202087
:100A10004A6F756572206C6573203200204C6972D4
:100A2000652076616C65757200205B566172696F36
:100A30005D0020202020205B566962726575725D22
:100A4000002020204C6F677320534400202020207A
:100A500020528074726F80636C2E0020202004432B
:100A600068723143687232546F757454806C6D458E
:100A700052610045526200044270310042703200FF
:100A80004270330057726E3157726E32436865653B
:100A9000526174615469636B5369726E52696E6717
:100AA00053636946526F6274436872705461646143
:100AB0004372636B416C726D042D2D2D0042617485
:100AC000744368723143687232547800205278005F
:100AD000204131002041320020416C740052706D81
:100AE0000043617262543100205432002056697410
:100AF0000044697374416C7447456C656D56656C50
:100B00006D56666173436F7572436E736D50756990
:100B10007341636358416363594163635A4361702E
:100B20000056697456566974416445540041312D2C
:100B30000041322D00416C742D416C742B52706D4C
:100B40002B54312B0054322B005669742B44737490
:100B50002B5669412B456C6D2D456C732D56667374
:100B60002D4375722B5075692B41636300546D7072
:100B700073035600204100206D2F732D00206B6DF4
:100B8000686D00204000202500206D41006D416807
:100B9000570020042D2D2D2D4A61756E4F72616E08
:100BA000526F7567013C3E07417563756E202048A2
:100BB0007562002020205753484869676804444DF7
:100BC00053004E4D4541032D2D2D41310041320042
:100BD00046415343656C05416C746900416C74690E
:100BE0002B566172696F413100202041320004565A
:100BF000616C2E42617273042D2D2D203132302014
:100C00003132305831343020393000054D656E7541
:100C10000045786974004261730020486175740072
:100C200044726F69744761756368032D2D2D4944C3
:100C300030494431494432544852525544454C4558
:100C400041494C47454154524E744467744464745E
:100C500050627450687447627447687441677441A5
:100C6000645245615245624C31004C32004C3300B5
:100C70004C34004C35004C36004C37004C38004C9E
:100C800039004C31304C31314C31324F4E00556EC1
:100C9000042D2D2D00446972005072660047617A60
:100CA0000041696C00503100205032002050330068
:100CB0002052456100524562004D4158004359435E
:100CC00031435943324359433354726D4454726D26
:100CD0005054726D4754726D4133504F53034F4619
:100CE000464F4E00475A73475A25475A74054441A8
:100CF00054453A48455552450C4F46460020202061
:100D00002020202020566F6C002020202020202032
:100D1000205265736574204D616E75656C00547862
:100D20003A0052783A0052535349204D696E2E00D2
:100D3000414C45525445001B20FC040404040404A7
:100D400084C48404E4F4E40484C4C40404040404F3
:100D5000040404FCFF000000FCFE00FFFFFF80FF16
:100D6000FFFF80FFFFFF0000008080800000FFFF8A
:100D7000000000FFFFFFFFFFFFFFFFFFFFFFFFFF80
:100D8000FFF8FCFF3F0F030000FF3F20202021273A
:100D9000272F2F2F2B272F2F2F2F2F2F27232020A9
:100DA000202020203F448070617373656D656E74F0
:100DB00020454550524F4D00460A02124628011068
:100DC0004B0A0110410A0110460A021000000000FF
:100DD000460A011046140110461E011000000000D2
:100DE000780A0110780600007A0603017C060302E7
:100DF000781E0310780F0310780F0311780F031279
:100E0000460A010046140100461E01005A0F050261
:100E1000640F0502640A028278050A0A7805320224
:100E20000A1405424D4958455552004D414E43481C
:100E30004553002F3332002F3136005375707072D6
:100E4000696D6572004480706C6163657200436F08
:100E50007069657200496E7380726572206170728C
:100E6000817300496E7380726572206176616E7461
:100E70000045646974657200496E766572736572C7
:100E80002047617A3F00055472696D73203D3E2012
:100E90005375627472696D7300534552564F530017
:100EA00000050505050505050505050505050505F7
:100EB00005005068617365004D6178206D69786147
:100EC0006765732061747465696E7421004D617883
:100ED000206578706F732061747465696E74210089
:100EE000436F7480004E2F44004578706F000000FF
:100EF00000050052616C656E746920626173005276
:100F0000616C656E74692068617574005265746106
:100F1000726420626173005265746172642068615A
:100F20007574004F7080726174696F6E004F464631
:100F300000416C65727465004469666600436F75B4
:100F40007262650044526578005472696D005261A6
:100F500074696F0001536F757263650000000001D2
:100F60000105000000000000000500004544495450
:100F70004552204D495841474500494E5345524539
:100F800052204D495841474500000102030002012B
:100F90000303010200030201005B085D0056617259
:100FA0006961626C6520676C6F62616C6500537487
:100FB00061746973746971756573005280696E69D3
:100FC000742E20766F6C005280696E69742E2054E6
:100FD000806C806D2E005280696E69742E20546979
:100FE0006D657232005280696E69742E2054696D8D
:100FF000657231001F665345531E544D311F6654B0
:101000004D321E47415A1F66475A250053544154DA
:1010100053005B4D454E555D20706F7572207265B3
:1010200073657400467265652052616D1F546200DD
:101030004672656520537461636B1F546200546D82
:101040006978206D61781F546D7300546D72312082
:101050004A69747465721F54757300546D72314C13
:101060006174206D696E1F54757300546D72314C3C
:101070006174206D61781F54757300444542554773
:10108000005647004348005452004D4F44454C45DC
:101090000050560043420005030706060D050500F3
:1010A000000000000000000000FFFFFFFFFFFFFF47
:1010B000FFFFFFFFFFFFFF00660076003E001EFF00
:1010C000FFFFFFFFFFFFFF800180018001800180A3
:1010D00001800180018001FFFFFFFFFFFFFFFF0094
:1010E00030007800780030FFFFFFFFFFFFFFFF00B8
:1010F000600060006000600060006000600060FFF1
:10110000FFFFFFFFFFF81FFC3F0E70066006600E3A
:1011100070FC3FF81FFFFFFFFF000018601C60FE1F
:101120007FFE7F006000600000FFFFFFFF18781C5B
:101130007C0E6E06678663CE61FC607860FFFFFF01
:10114000FF06600660866186618661CE73FC3F782B
:101150001EFFFFFFFF8007C007E006700638061C71
:1011600006FE7FFE7FFFFFFFFF7E187E38667066FB
:10117000606660E670C63F861FFFFFFFFFF81FFC3A
:101180003F8E71866186618E731C3F181EFFFFFFC4
:10119000FF06000600867FC67FE60076003E001E42
:1011A00000FFFFFFFF781EFC3FCE7386618661CE95
:1011B00073FC3F781EFFFFFFFF7800FC00CE6186C6
:1011C000718639CE1DFC0FF807FFFFFFFF000030CE
:1011D0000C781E781E300CFFFFFFFFFFFFFFFFE0C3
:1011E0007FF07FB8019C018E018E019C01B801F057
:1011F0007FE07FFE7FFE7F866186618661866186F5
:1012000061CE73FC3F781EF81FFC3F0E700660062F
:1012100060066006600E701C381818FE7FFE7F06A0
:1012200060066006600E701C38381CF00FE007FE88
:101230007FFE7F8661866186618661866186610642
:10124000600660FE7FFE7F8601860186018601863C
:1012500001860106000600F81FFC3F0E700660863E
:1012600061866186618E719C7F983FFE7FFE7F80E4
:101270000180018001800180018001FE7FFE7FFFEF
:10128000FFFFFF06600660FE7FFE7F06600660FFD0
:10129000FFFFFF001800380070006006600670FE57
:1012A0003FFE1F06000600FE7FFE7F8001C003E0B8
:1012B00007700E381C1C380E700660FE7FFE7F0023
:1012C000600060006000600060006000600060FE20
:1012D0007FFE7F1C003800F001F00138001C00FE8A
:1012E0007FFE7FFE7FFE7F7000E000C00180030074
:1012F00007000EFE7FFE7FF81FFC3F0E70066006A3
:1013000060066006600E70FC3FF81FFE7FFE7F8661
:10131000018601860186018601CE01FC007800F875
:101320001FFC3F0E7006600666066E063C0E38FC1B
:101330007FF867FE7FFE7F860186018607860F861F
:101340001DCE39FC7078607818FC38CE71866186C5
:1013500061866186618E731C3F181E0600060006BA
:10136000000600FE7FFE7F0600060006000600FE67
:101370001FFE3F007000600060006000600070FEB3
:101380003FFE1FFE07FE0F001C00380070007000BB
:1013900038001CFE0FFE07FE1FFE3F0070007000AD
:1013A0003E003E00700070FE3FFE1F1E783E7C70C7
:1013B0000EE007C003C003E007700E3E7C1E787E7F
:1013C00000FE00C0018003007F007F8003C001FE9B
:1013D000007E000678067C066E06678663C661E6B8
:1013E0006076603E601E600018003C607E60666053
:1013F0006660666066E066C07F807FFE7FFE7F80FD
:1014000061C061E06060606060E070C03F801F802C
:101410001FC03FE07060606060606060606070008E
:10142000380018801FC03FE07060606060E060C0FE
:10143000618061FE7FFE7F801FC03FE07660666056
:101440006660666066E066C007800780018001F81C
:101450007FFC7F8E01860106000E001C001800E054
:1014600001F003386718661866186618661876F86B
:101470003FF81FFE7FFE7F8001C001E0006000603A
:1014800000E000C07F807FFFFFFFFF60606060E6DC
:101490007FE67F00600060FFFFFFFFFFFF00180096
:1014A000380070006060606070E63FE61FFFFFFE7E
:1014B0007FFE7F0006000F801FC039E0706060FF74
:1014C000FFFFFFFFFFFFFF06600660FE7FFE7F005D
:1014D000600060FFFFFFFFE07FE07F6000E000C092
:1014E00007C007E000E000C07F807FE07FE07F80F2
:1014F00001C001E00060006000E000C07F807F80EC
:101500001FC03FE0706060606060606060E070C05D
:101510003F801FE07FE07F60066006600660066037
:1015200006E007C00380018001C003E00760066099
:10153000066006C0078007E07FE07FE07FE07F80F5
:1015400001C001E00060006000E000C00180018097
:1015500061C063E0676066606660666066607E00CA
:101560003C001860006000F81FF83F607060600089
:1015700060007000380018E01FE03F00700060005D
:1015800060007000380018E07FE07FE007E00F00A7
:101590001C0038007000700038001CE00FE007E00D
:1015A0001FE03F007000700038003800700070E0ED
:1015B0003FE01F6060E070C039801F000F000F80A7
:1015C0001FC039E0706060E001E003006700660062
:1015D00066006600660076E03FE01F606060706055
:1015E00078607C606E6067E063E061E0606060008E
:1015F00000FFFFFFFFFF6FFFFFFF070007FF18302F
:10160000180C06087F7F7F0823130864623649554B
:101610002250FF0503FFFFFF1C2241FFFF41221C58
:10162000FF14083E081408083E0808FF5030FFFF6A
:1016300000080808FFFFFF40FFFF20100804023EDB
:1016400041413EFF00427F40FF62514946FF414910
:101650004936FF1814127FFF27454539FF3E494997
:1016600032FF01790503FF36494936FF0649291E35
:10167000FFFF3636FFFFFF5636FFFFFF08142241FB
:10168000141414141441221408FF0201510906060F
:10169000090906FF7E0909097E7F494949363E410D
:1016A0004141227F4141221C7F494949417F09092B
:1016B00009013E4149497A7F0808087FFF417F417F
:1016C000FF2040413F017F081422417F404040FFFE
:1016D0007F020C027F7F0408107F3E4141413E7F24
:1016E000090909063E4151215E7F0919294626490B
:1016F00049493201017F01013F4040403F1F2040E6
:10170000201F3F4030403F631408146307087008EF
:10171000076151494543FF7F4141FF020408102002
:10172000FF41417FFF605846586040404040FFFF06
:10173000010204FF20545454787F4844443838440C
:10174000444420384444487F3854545418087E098F
:1017500001020C5252523E7F08040478FF447D403F
:10176000FF2040443DFF7F102844FFFF417F40FFA2
:101770007C041804787C0804047838444444387C99
:1017800014141408081414187C7C08040408485421
:10179000545420043F4440203C4040207C1C2040C6
:1017A000201C3C4020403C44281028440C50505001
:1017B0003C4464544C4410081008FFFFFF7FFFFFB7
:1017C00041225428FF0808221C08081C2208083857
:1017D0005456551838555654182055565478FF4AC3
:1017E0007942FF1CA262221043616C004D756C743B
:1017F00069706C69657572004D6F646506252053CC
:101800006F7572636500456C8176650045434F4C8A
:101810004147450000020202020046573A204F703D
:10182000656E54582D6D656761323536301E5645EC
:1018300052531F1B3A20322E312E391E444154453B
:101840001F1B3A20323031392D30382D32331E549F
:10185000494D451F1B3A2030333A30303A30321E62
:10186000454550521F1B3A203231370056455253DE
:10187000494F4E0004424F55474552205354494367
:101880004B532F504F545300065B4D454E555D2032
:101890005155414E44205052455400085245474C42
:1018A0004552204E45555452455300065B4D454E1A
:1018B000555D20504F5552204445425554004341F8
:1018C0004C4942524154494F4E0012080010381002
:1018D0001010381000001044009200441000000066
:1018E000000044FE44000000104400920044100038
:1018F000001044009200441000000044FE44000028
:101900000000001044009200441000001038101035
:10191000103810005472696D2D202B00494E54452B
:10192000525300030102000405060743616C69621B
:101930002E2042617474657269650042473A004125
:1019400000414E415300566974657373653A005304
:10195000656374657572733A005461696C6C653ABD
:1019600000547970653A00494E464F205344002098
:101970007375707072696D80002F00436F6E6669B9
:10198000726D657220466F726D61746167653F00AC
:10199000AC2000001A2092011E20262020202120A9
:1019A000C602302060013920520100007D01000094
:1019B0000000182019201C201D2022201320142094
:1019C000DC02222161013A20530100007E017801EE
:1019D000A000A100A200A300A400A500A600A700EB
:1019E000A800A900AA00AB00AC00AD00AE00AF009B
:1019F000B000B100B200B300B400B500B600B7004B
:101A0000B800B900BA00BB00BC00BD00BE00BF00FA
:101A1000C000C100C200C300C400C500C600C700AA
:101A2000C800C900CA00CB00CC00CD00CE00CF005A
:101A3000D000D100D200D300D400D500D600D7000A
:101A4000D800D900DA00DB00DC00DD00DE00DF00BA
:101A5000E000E100E200E300E400E500E600E7006A
:101A6000E800E900EA00EB00EC00ED00EE00EF001A
:101A7000F000F100F200F300F400F500F600F700CA
:101A8000F800F900FA00FB00FC00FD00FE00FF007A
:101A9000808182838485868788898A8B8C8D8E8FCE
:101AA00090919293949596979899AD9B8C9DAE9FAB
:101AB000A021A2A3A4A5A6A7A8A9AAABACADAEAF2E
:101AC000B0B1B2B3B4B5B6B7B8B9BABBBCBDBEBF9E
:101AD000C0C1C2C3C4C5C6C7C8C9CACBCCCDCECF8E
:101AE000D0D1D2D3D4D5D6D7D8D9DADBDCDDDEDF7E
:101AF000C0C1C2C3C4C5C6C7C8C9CACBCCCDCECF6E
:101B0000D0D1D2D3D4D5D6F7D8D9DADBDCDDDE9F7D
:101B1000434F555242455300496E762E20636F6CF9
:101B20006C656374696600496E762E206C61748002
:101B300072616C00496E762E206C6F6E67697475E9
:101B4000642E004C696D697465204379636C2E00C6
:101B5000436F6C6C656374696600547970652064CA
:101B60006520506C61742E00434F4E462E48454C04
:101B7000490089B6ECBFEC822C851C5219523149C0
:101B8000C683EEBDFEBA66AB4F7264726520766F97
:101B9000696573205258004C6F676F20642761633A
:101BA000637565696C000144757280650001416C64
:101BB00061726D6500528074726F80636C616972CE
:101BC000616765004E6176696720456E63526F7488
:101BD0000001496E6163746976697480000153691C
:101BE0006C656E636500014D806D6F697265207074
:101BF0006C65696E650001426174746572696500A7
:101C0000416C61726D657300436F6E7472617374C1
:101C1000650001546F6E616C6974800001447572D7
:101C2000806500014D6F646500536F6E00486575F7
:101C30007265001F1C1F1E1F1E1F1F1E1F1E1F441C
:101C400061746500434F4E46494720524144494F15
:101C500000000202FF00000000FF0000000000FF83
:101C60000000000000FF0150657273005661726948
:101C700061626C657320476C6F62616C65730046CE
:101C80006F6E6475204F464600466F6E6475204F38
:101C90004E00456E632E526F742E005472696D7340
:101CA000004E6F6D00000003010000FF02020202FF
:101CB00002000000FF01010101015048415345208D
:101CC000444520564F4C000656807269660A54728D
:101CD000696D7300286480666175742900504841FD
:101CE00053455320444520564F4C00793D00783DE4
:101CF0000070740070742700015479706500434FC0
:101D00005552424500496E746572004368617267BE
:101D1000656D656E742E2E2E00496E636F6D706159
:101D20007469626C65004361727465205344206974
:101D30006E646973706F6E69626C65002E62696EA5
:101D4000002F4D4F44454C5300417563756E206D17
:101D50006F64816C6520534400410042004300449D
:101D600000450046004700480049004A004B004C2F
:101D7000004D004E004F00500051005200530054DF
:101D800000550056005700580059005A002100E045
:101D9000FFE1FFE5FFE2FFE3FFC000C100C200C3B7
:101DA00000C400C500C600C700C800C900CA00CBF7
:101DB00000CC00CD00CE00CF00D000D100D200D3A7
:101DC00000D400D500D600D800D900DA00DB00DC52
:101DD00000DD00DE007801000102010401060108B7
:101DE000010A010C010E0110011201140116011863
:101DF000011A011C011E01200122012401260128D3
:101E0000012A012C012E0130013201340136013941
:101E1000013B013D013F0141014301450147014AA9
:101E2000014C014E01500152015401560158015A12
:101E3000015C015E01600162016401660168016A82
:101E4000016C016E01700172017401760179017BF0
:101E5000017D0191019103920393039403950396ED
:101E6000039703980399039A039B039C039D039E86
:101E7000039F03A003A103A303A403A503A603A731
:101E800003A803A903AA03100411041204130414E1
:101E900004150416041704180419041A041B041C5E
:101EA000041D041E041F042004210422042304240E
:101EB00004250426042704280429042A042B042CBE
:101EC000042D042E042F0401040204030404040559
:101ED0000406040704080409040A040B040C040E95
:101EE000040F046021612162216321642165216660
:101EF000216721682169216A216B216C216D216E86
:101F0000216F2121FF22FF23FF24FF25FF26FF272A
:101F1000FF28FF29FF2AFF2BFF2CFF2DFF2EFF2F6D
:101F2000FF30FF31FF32FF33FF34FF35FF36FF371D
:101F3000FF38FF39FF3AFF00006100620063006470
:101F400000650066006700680069006A006B006C4D
:101F5000006D006E006F00700071007200730074FD
:101F600000750076007700780079007A00A100A261
:101F700000A300A500AC00AF00E000E100E200E338
:101F800000E400E500E600E700E800E900EA00EB15
:101F900000EC00ED00EE00EF00F000F100F200F3C5
:101FA00000F400F500F600F800F900FA00FB00FC70
:101FB00000FD00FE00FF000101030105010701090A
:101FC000010B010D010F0111011301150117011979
:101FD000011B011D011F01210123012501270129E9
:101FE000012B012D012F0131013301350137013A58
:101FF000013C013E01400142014401460148014BC0
:10200000014D014F01510153015501570159015B28
:10201000015D015F01610163016501670169016B98
:10202000016D016F0171017301750177017A017C06
:10203000017E019201B103B203B303B403B503B649
:1020400003B703B803B903BA03BB03BC03BD03BEA4
:1020500003BF03C003C103C303C403C503C603C74F
:1020600003C803C903CA03300431043204330434FF
:1020700004350436043704380439043A043B043C7C
:10208000043D043E043F044004410442044304442C
:1020900004450446044704480449044A044B044CDC
:1020A000044D044E044F0451045204530454045587
:1020B0000456045704580459045A045B045C045E33
:1020C000045F0470217121722173217421752176BE
:1020D000217721782179217A217B217C217D217E24
:1020E000217F2141FF42FF43FF44FF45FF46FF4759
:1020F000FF48FF49FF4AFF4BFF4CFF4DFF4EFF4F8C
:10210000FF50FF51FF52FF53FF54FF55FF56FF573B
:10211000FF58FF59FF5AFF000000456372616E20AF
:102120000001436F7272204641530001436F757284
:10213000616E74000154656E73696F6E00015061C9
:102140006C6573000150726F746F2E00446F6E6E79
:1021500080657300525353490001448063616C6190
:1021600067650001506C61676500410054454C454E
:102170004D45535552450000FF01000202FF01008A
:102180000202FF0101FF0000000000000202020243
:1021900000020202025F2D2E2C0080402010080455
:1021A00002014D4F44454C45530064697370005221
:1021B0006573746175726572204D6F64816C650022
:1021C0004372806572204D6F64816C650053757039
:1021D0007072696D6572204D6F64816C650044801A
:1021E000706C61636572204D6F64816C6500436F34
:1021F00070696572204D6F64816C6500417263681F
:1022000069766572204D6F64816C650053806C65E2
:1022100063742E204D6F64816C65004480706C6126
:1022200063656D656E742E2E2E00436F7069652E8A
:102230002E2E005355505052494D4552204D4F447B
:10224000454C4500494E54455253204C4F472E00B3
:102250000003032D3D312B3D3100464F4E43544981
:102260004F4E5320535045432E0000046D730054CD
:1022700072616D652050504D004269707320636536
:102280006E7472003C5D00416C6572746520696E0D
:102290007400416C657274652067617A00547269DC
:1022A0006D2067617A00536F757263652047617AAC
:1022B00000496E762E2067617A0050617320547257
:1022C000696D005B52415A5D005472696D732080E4
:1022D000742E004C696D697465732080742E000142
:1022E000506572736973742E004368726F6E6F204D
:1022F00000014269702066696E0001426970206DBC
:10230000696E2E00434F4E462E204D4F44454C459E
:1023100000000002000000020000000001000000B8
:1023200000000708010276D611241FBECFEFD1E2CC
:10233000DEBFCDBF00E00CBF15E0A0E0B2E0EEEAEA
:10234000F1EB01E00BBF02C007900D92A431B10781
:10235000D9F727E1A4E1B5E001C01D92A238B20788
:10236000E1F711E1C4E9D1E100E006C021970109DC
:10237000802FFE010E944DD8C339D10780E00807A5
:10238000A9F70E9413C50C94D5D80C940000209195
:10239000061496E0482F50E08FE02223C9F0FA019E
:1023A000829FE00DF11D1124EE0FFF1FED5AFE4E2E
:1023B00060817181693E33E0730764F037E1360F65
:1023C000321710F038E1360F915029F0232FE5CF66
:1023D00090E001C0922F892F089590916707911185
:1023E00007C07398809167078F5F809367071BC052
:1023F000993029F4739A1092670791E014C0282F3E
:1024000030E09150A90102C0559547959A95E2F7A1
:1024100040FF02C0739A01C07398809167078F5F75
:102420008093670790E0892F08952F923F924F92F3
:102430005F926F927F928F929F92AF92BF92CF9254
:10244000DF92EF92FF920F931F93CF93DF93CDB75D
:10245000DEB728970FB6F894DEBF0FBECDBF2B01B5
:102460003C0129833A834B835C831801FE82ED8211
:10247000D886CF828B019C0142E035952795179530
:1024800007954A95D1F705521E4FAB01BC01437029
:1024900055276627772781E090E0452B462B472B71
:1024A00011F080E090E0081B190B6501D594C794EA
:1024B000D594C79425E2C21A2EEFD20A21E030E06B
:1024C000C50183709927892B11F020E030E0C21AF2
:1024D000D30A29E130E0C801B9010E947ED6991FD4
:1024E0009927991FFB01E91BF109C601B9010E9457
:1024F0007ED6991F9927991F7B01E91AF108C5011A
:10250000BB0CAA0BBB0BA3019201281B390B4A0B76
:102510005B0BADE6B1E00E9470D829813A814B8116
:102520005C81260F371F481F591F092C000CAA0871
:10253000BB08BA01A901481959096A097B090C1994
:102540001D0997012E1B3F0B020F131FF595E795F1
:10255000F595E795F594E794F594E794CF018E19F6
:102560009F09F801E80FF91F8F01FF0F220B330BB2
:10257000DB01CA01800F911FA21FB31F9C01AD0197
:10258000A8E1B0E00E9470D88101330C220B330B1C
:10259000AB01BC01400F511F621F731F8E8D9F8DB9
:1025A000092E000CAA0BBB0B9A01AB01281B390B9F
:1025B0004A0B5B0BACE3B0E00E9470D8AD81BE81EA
:1025C0008D01BB0F220B330BAB01BC01400F511F20
:1025D000621F731F88A199A1092E000CAA0BBB0BC7
:1025E0009A01AB01281B390B4A0B5B0BACE3B0E043
:1025F0000E9470D84F8158858A01550F220B330BEA
:10260000DC01CB01800F911FA21FB31F0AA11BA1E8
:10261000012E000C220B330BBC01CD01601B710B92
:10262000820B930B28960FB6F894DEBF0FBECDBF7A
:10263000DF91CF911F910F91FF90EF90DF90CF909E
:10264000BF90AF909F908F907F906F905F904F90D2
:102650003F902F9008958091C6122AEF829FC0016B
:102660001124880F991F90938D0780938C070895EC
:10267000CF93DF93E3E2F9E1C0E024E02E0FA491D1
:10268000B0E0AA0FBB1FA759B74F8D919C9136E0C0
:10269000969587953A95E1F7C80F31962E13EFCFAF
:1026A000D2E18D2F0E9416A0C90FDF5FD931C9F783
:1026B0008091BF159C2F981B892F082E000C990B19
:1026C00097FF03C0919581959109029724F0C093DB
:1026D000BF1581E001C080E0DF91CF910895809126
:1026E0004E0E90918B07981749F180938B07C0DFAE
:1026F000882341F01092BE151092BD158091AF1243
:1027000081FDA9DF8091AF12843061F080918C0748
:1027100090918D07892B31F48091971686FB88273D
:1027200080F901C081E090914A12992311F091E063
:102730008927882311F0409A08954098089590E0E1
:10274000FC013297EA32F10578F58827EE58FF4F01
:102750008F4F0C944DD828E0629FC0011124845FF4
:102760009140089522E3629FC00111240895862FAD
:1027700090E04E970895862F90E0880F991F089556
:1027800024E1F1CF28E0EFCF25E0EDCF24E6EBCF39
:10279000862F90E0BC016D5771092AE0269FC00189
:1027A000279F900D11240895862F90E008958A3078
:1027B00059F020F48450823028F406C0893111F495
:1027C00084EB08958FEF089584E60895982F86E0AE
:1027D00070E03FE09923C9F0FB01399FE00DF11D46
:1027E0001124EE0FFF1FE95AFE4E408151814138FE
:1027F00051056CF02FE7240F291710F020E8240F63
:10280000815011F0922FE6CF089580E00895892F2E
:102810000895FF920F931F93CF93DF93F82E842F89
:1028200063389FEF79072CF06D3771052CF4EB01BD
:1028300005C0C3E8DFEF02C0CDE7D0E06F2DC6DFF3
:102840000F2D10E0F8019FE08902E00DF11D112429
:10285000EE0FFF1FE95AFE4E808191818C179D0774
:10286000A9F0D183C08382E00E94CCA987E0809F39
:10287000F001819FF00D1124EF5FFD4E808180FFFC
:1028800005C0F092E41384E680930714DF91CF91A2
:102890001F910F91FF900895EF92FF920F931F9356
:1028A000CF93DF937B018A01481759071CF08617E5
:1028B00097074CF5013811051CF4C0E8C80F01C09A
:1028C000C82FC7FF03C0C095DFEF01C0D1E06C2F58
:1028D000822F7CDF2FE0829FC0011124FC01EC0FCE
:1028E000F11DC7FDFA95EE0FFF1FE95AFE4E20813C
:1028F00031814D2F4203C001439F900D11248E154D
:102900009F050CF4C701081719070CF4C801DF91E3
:10291000CF911F910F91FF90EF9008951F93CF9348
:10292000DF93162FC82FD0E0FE01E650FA4E9081BB
:10293000960F90832CDD482F50E0FE012FE0829F00
:10294000E00DF11D1124EE0FFF1FED5AFE4E8081A8
:1029500091812AE01202800D911D112488312CEF03
:1029600092073CF0883E23E092072CF088EE93E03B
:1029700002C088E19CEF6FE0649F9001659F300D7D
:102980001124C20FD31FCC0FDD1FCD5ADE4E998309
:10299000888382E0DF91CF911F910C94CCA9CF93D3
:1029A000C82FF5DC2FE0829FC0011124FC01EC0F41
:1029B000F11DEE0FFF1FED5AFE4E80819181CF91E8
:1029C0000895982F86E070E03FE09923D1F0FB0155
:1029D000399FE00DF11D1124EE0FFF1FED5BFE4E40
:1029E00040815181453F21E052076CF02BE0240FDC
:1029F000291710F02CE0240F815011F0922FE5CF11
:102A0000089580E00895892F0895CF93C62FD9DFC8
:102A10002FE0829FC0011124FC01EC0FF11DEE0F8D
:102A2000FF1FED5BFE4E80819181CF9108950F9342
:102A30001F93CF9309E611E1C1E0F801808188235B
:102A400031F00E94BCB2882311F08C2F06C0CF5FFA
:102A5000025E1F4FC63089F780E0CF911F910F9122
:102A60000895EF92FF920F931F93CF93DF9380917E
:102A70004E0E90914F0E019690934F0E80934E0EF6
:102A800080918C0790918D07009729F00197909382
:102A90008D0780938C0780914A12882319F081500A
:102AA00080934A128091D713882319F08150809324
:102AB000D71380910116882319F081508093011655
:102AC00080910009882319F081508093000980913A
:102AD000F9158F5F8093F9158436A9F48091FC1560
:102AE0009091FD15A091FE15B091FF150196A11DC5
:102AF000B11D8093FC159093FD15A093FE15B09326
:102B0000FF151092F915609103016170C1E06C2707
:102B100084E796E10E94D469609103016695617033
:102B20006C2787E796E10E94D4698091090180951E
:102B3000C82FC073C695C695C6958F70880F880F2D
:102B4000880FC82B2AE4E22E26E1F22E01E010E0E5
:102B50000C2E000CDD0BBE01002E02C07595679592
:102B60000A94E2F76170C7010E94D4690F5F1F4F9A
:102B700043E0E40EF11C0730110569F7FFB0F09453
:102B80000AE911E2C0E0D0E0F80184918F2161E010
:102B900009F460E0CE01845A994E0E94D4690F5F17
:102BA0001F4F2396C831D10579F78091CA12882327
:102BB00039F190E0FC01E750FA4E308120918A070C
:102BC000F32FF21B2F2F41F030938A07221F222769
:102BD000221F22522093670820916708422F4F71CD
:102BE00050E00D964817590759F4822F807E8032A5
:102BF00011F48FEC03C0803819F48EEC80936708D1
:102C0000E09121084E2F42954F7050E060E080E047
:102C100090E0262F30E02417350744F4E901CF5324
:102C2000D84F2EA1820F911D6F5FF3CF65E070E04A
:102C30000E9491D6EB0170933C0860933B08809111
:102C40005D0890915E086817790724F470935E0818
:102C500060935D081091B307112309F47BC0E3FD75
:102C600069C080912A1282958695869583708230FC
:102C700080F445E0849FF0011124EF53F84F608108
:102C800070E00E94B82C6AE070E00E947ED6EB01F2
:102C900006C0823021F4C0914508D09146082091A9
:102CA0002308309124088091471287708150823028
:102CB00078F495E0899FF0011124EF53F84F60817B
:102CC00070E00E94B82C6AE070E00E947ED69B0102
:102CD000A90156954795D695C7954C9FC0014D9F24
:102CE000900D5C9F900D112469E170E00E9491D6D7
:102CF000709342086093410880913F08909140088A
:102D0000B901680F791F7093400860933F086031E4
:102D1000EEE07E0778F080913D0890913E080196A4
:102D200090933E0880933D0860517E407093400828
:102D300060933F0880914108909142082091630878
:102D4000309164082817390790F5909364088093B0
:102D500063082DC060E08BEC97E00E94C7A660E09E
:102D60008FEC97E00E94C7A680919C14882329F0DD
:102D700080919C14815080939C1480919B14882393
:102D800029F080919B14815080939B1480910902BB
:102D9000897F809309028091D31681608093D31636
:102DA000DF91CF911F910F91FF90EF9008951150F7
:102DB0001093B307D9CF282FE091C712F0E0E05766
:102DC000F84FE491F0E084E090E0821B9109880FD5
:102DD000991F9F0102C0359527958A95E2F7C90191
:102DE00083708F5F0895EF92FF920F931F93CF939D
:102DF000DF9382E00E94CCA90EE61EE0C0E0D0E0A6
:102E00008AE0E82E94E6F92EEC9EF001ED9EF00D9E
:102E10001124E459F14F9C2F9F708081807F892B72
:102E20008083F801F0828C2F8F5FC5DFF801319726
:102E300080832196065F1F4FC430D10529F7DF91AB
:102E4000CF911F910F91FF90EF90089566E40C943D
:102E5000C0431F920F920FB60F9211240BB60F9220
:102E60002F933F934F935F936F937F938F939F9392
:102E7000AF93BF93CF93DF93EF93FF937894C09179
:102E80000502D0910602CE37D10581F489E190E0A8
:102E900090932901809328011F996FC08EE79DDAD6
:102EA000882309F444C084E090E03CC0C430D105DC
:102EB00039F484E092DA8823D1F183E090E032C0E3
:102EC000C330D10551F483E088DA882309F454C073
:102ED000109206021092050250C0209789F4C0910A
:102EE0008907EC2FF0E0E759F84F808176DA8823E4
:102EF00009F442C0CF5FC093890781E090E012C01F
:102F0000C130D105A1F4C0918907EC2FF0E0E75959
:102F1000F84F808162DA882379F1CF5FC093890707
:102F20008FEE90E0909306028093050226C0CF3E7C
:102F3000D10511F58FEE51DA8823F1F08EE790E09C
:102F4000909306028093050280918907803211F4E4
:102F500010928907809168079091890798130DC096
:102F600089E190E09093290180932801809173007A
:102F70008D7F8093730001C0F894FF91EF91DF91F2
:102F8000CF91BF91AF919F918F917F916F915F9101
:102F90004F913F912F910F900BBE0F900FBE0F904E
:102FA0001F9018952091C1122871203199F12FB7E7
:102FB000F8940196E0916807F0E0E759F84F9083A4
:102FC000909168079F5F90936807E0916807F0E031
:102FD000E759F84F8083809168078F5F8093680777
:102FE00080916807803211F4109268072FBF80919A
:102FF000730081FD0FC010922501109224018AEF09
:1030000090E0909329018093280180917300826061
:10301000809373000895BC018CEF95E10C94D4412A
:103020000F931F938B019C010370112722273327D5
:10303000012B022B032BB1F424E630E040E050E0FA
:103040000E9431D8672B682B692B71F4BA01A90152
:10305000437055276627772781E041305105610588
:10306000710519F080E001C081E090E01F910F919F
:1030700008952F923F924F925F926F927F928F921C
:103080009F92AF92BF92CF92DF92EF92FF920F93F7
:103090001F93CF93DF93CDB7DEB7AD970FB6F894FC
:1030A000DEBF0FBECDBF1C01DC018C91E82F880F65
:1030B000FF0BFB8FEA8FF1018181082F880F110B25
:1030C0001D8F0C8F8281282F880F330B3F8F2E8FFF
:1030D00073808481082E000C990B65806CE070E091
:1030E0000E947ED62C01052D001F0027001F10E036
:1030F000862C062C000C9908AA08BB08CB01801B63
:10310000910B092E000CAA0BBB0BA5019401280FF3
:10311000391F4A1F5B1F28A339A34AA35BA3CA0117
:10312000B9017EDF2CE0209FF001219FF00D1124DA
:10313000E40DF51D4DE0DC014A9FC0014B9F900D51
:103140001124E80FF91FEE0FFF1FE95BFD4F80818F
:1031500091810197092E000CAA0BBB0B472D072C60
:10316000000C550B660B770B8C019D01040F151F8E
:10317000261F371F0EA31FA328A739A72091630777
:103180003091640740916507509166072A8B3B8B0D
:103190004C8B5D8BC9019195819591099F938F937C
:1031A0001F921F921F921F92812C912C46E4A42EF5
:1031B000B12CCA8CDB8CEC8CFD8C0E8D1F8D2EA15E
:1031C0003FA148A559A568A179A18AA19BA12DD9A4
:1031D0000F900F900F900F900F900F906E877F873A
:1031E000888B998B262D660C330B359527952352AA
:1031F0003109872D770C990B892F990F990B85959C
:1032000085953901680E791EC801990F880B990FB1
:10321000982F881F680E791EC701990F880B982F69
:10322000680E791EC601990F880B982F680E791EBB
:103230008E859F85A889B9891AE1B595A795979537
:1032400087951A95D1F78619970997FF03C091952D
:10325000819591094697CCF14E855F85688979897A
:103260004095509560957095DB01CA012AE1B595AE
:10327000A795979587952A95D1F78619970997FF6E
:1032800003C091958195910946972CF06FEF7FEFE0
:103290008FEF9FEFFCC0DB01CA010E851F852889D7
:1032A0003989801B910BA20BB30B0A891B892C89CE
:1032B0003D89080F191F2A1F3B1F0A8B1B8B2C8B64
:1032C0003D8B4E875F87688B798B2E853F8548893C
:1032D00059892A873B874C875D872E8B3F8B488F88
:1032E000598F2AA73BA74CA75DA7A6E0B0E0BDA3D6
:1032F000ACA3BE016F5F7F4FCE010A960E94D441FE
:103300004A845B846C847D8488849984AE800A2C92
:10331000000CBB088981282F082E000C330B3F932B
:103320008F938A81282F082E000C330B3F938F93A5
:103330008B81282F082E000C330B3F938F93CA8C60
:10334000DB8CEC8CFD8C0E8D1F8D2EA13FA148A532
:1033500059A568A179A18AA19BA167D80F900F9068
:103360000F900F900F900F9053014201860E971E01
:10337000A81EB91E21E084149504A604B7040CF419
:1033800020E0AB01BC01442777FD43955527662714
:10339000772724131DC077FE0DC092E04916510413
:1033A000610490E87906BCF4D301C2010196A11D25
:1033B000B11D1AC0AEEF4A16AFEF5A066A06AFE764
:1033C0007A0674F0D301C2010197A109B1090CC0BA
:1033D000D501C40109C080E090E0A0E0B0E804C0DD
:1033E0008FEF9FEFAFEFBFE7481659066A067B06DF
:1033F00061F10AA51BA52CA53DA540165106620644
:10340000730649F42E893F89488D598D421653061B
:1034100064067506D1F44CA15DA1415051095DA32C
:103420004CA3452B09F432CF8A879B87AC87BD8795
:103430008E899F89A88DB98D8AA79BA7ACA7BDA7A8
:103440004E8A5F8A688E798E54CF8A899B89AC892F
:10345000BD89840D951DA61DB71D0E851F85288964
:103460003989801B910BA20BB30B80936307909358
:103470006407A0936507B093660789E0FE01319663
:10348000D10101900D928A95E1F7B201C301AD9689
:103490000FB6F894DEBF0FBECDBFDF91CF911F9165
:1034A0000F91FF90EF90DF90CF90BF90AF909F90E3
:1034B0008F907F906F905F904F903F902F900895E6
:1034C0000E94CA48892B21F01092A8091092A709DE
:1034D000109215051092140508950F931F93CF9322
:1034E000DF93CDB7DEB760970FB6F894DEBF0FBE9F
:1034F000CDBF80915F0790916007A0916107B09167
:103500006207892B8A2B8B2BF1F58091090280FDB4
:103510003AC040E050E0BA0189E00E943B66811168
:1035200030C060E170E0CE0101960E94D365892B26
:1035300041F1298130E086E0359527958A95E1F7BC
:103540008A8599852130310589F5482F50E04F5FF4
:103550005F4F292F30E0322F2227CA01820F931F9D
:10356000A0E0B0E0EAE0880F991FAA1FBB1FEA9510
:10357000D1F780935F0790936007A0936107B093A2
:1035800062070E94296660915F07709160078091D1
:1035900061079091620760960FB6F894DEBF0FBE88
:1035A000CDBFDF91CF911F910F910895288544E001
:1035B000249F90011124A9014F5F5F4F292F30E014
:1035C00096E0359527959A95E1F7240F351F4F81A1
:1035D000437050E0542F4427550F550F240F351FCB
:1035E000890120E030E09E81692F6F709B85991FD3
:1035F0009927991F960F8370880F890F8750B901FB
:10360000A80104C0440F551F661F771F8A95D2F783
:10361000DB01CA01AECF1F920F920FB60F92112499
:103620000BB60F922F933F934F935F936F937F93BC
:103630008F939F93AF93BF93EF93FF9389B18C7058
:1036400019F461E081E06AD9FF91EF91BF91AF91E8
:103650009F918F917F916F915F914F913F912F91AA
:103660000F900BBE0F900FBE0F901F9018951F92DA
:103670000F920FB60F9211240BB60F922F933F9318
:103680004F935F936F937F938F939F93AF93BF936A
:10369000EF93FF9389B18C7019F46FEF81E03ED9FD
:1036A000FF91EF91BF91AF919F918F917F916F911A
:1036B0005F914F913F912F910F900BBE0F900FBED6
:1036C0000F901F9018951F920F920FB60F92112412
:1036D0000BB60F922F933F934F935F936F937F930C
:1036E0008F939F93AF93BF93EF93FF938CB18073AE
:1036F00011F461E013D9FF91EF91BF91AF919F91C8
:103700008F917F916F915F914F913F912F910F908A
:103710000BBE0F900FBE0F901F9018951F920F9227
:103720000FB60F9211240BB60F922F933F934F9326
:103730005F936F937F938F939F93AF93BF93EF9319
:10374000FF938CB1807311F46FEFE8D8FF91EF9184
:10375000BF91AF919F918F917F916F915F914F91A9
:103760003F912F910F900BBE0F900FBE0F901F90A7
:103770001895FC01803191056CF4EE0FFF1F8E0F40
:103780009F1FFC01E65BF94E81E0908191113CC0E6
:1037900080E008957097E930F105A0F58827E45698
:1037A000FF4F8F4F0C944DD88091090186FB8827DD
:1037B00080F91FC089B18095881F8827881F23C082
:1037C00082B3809581701FC0809168088695817052
:1037D0001AC090916808967081E0A9F013C080919A
:1037E000680882FB882780F90EC082B382FB882795
:1037F00080F991E0892707C08091680883FB8827BA
:1038000080F901C080E0817008958091090190E005
:10381000809590958F739927892B59F48091030196
:1038200080FF07C0809103018695817091E0892710
:10383000089581E0089590910001892F807295FD8F
:1038400006C09091000196FD03C083E0089580E0DA
:103850000895242F45EE57E00E94BF37D6DF81112F
:103860000CC00E946F13A895E6DF8330B9F78091F2
:1038700002018F7E80930201F1CF08950F931F9371
:10388000CF93DF93C091F8118FEF8C0F833010F43A
:10389000CD5F01C0C2E08091680E83FD2CC00E9404
:1038A000222582E00E946FA4D0E0CC0FDD1FC0591A
:1038B000D84E8881998181319C4FECF021E04EEB0C
:1038C00057E062ED77E081EE97E00E94BF370E94FB
:1038D000222582E00E946FA408811981ACDF833029
:1038E00051F093DF811107C001311C4F24F00E9479
:1038F0006F13A895ECCFDF91CF911F910F91089591
:10390000FF920F931F93CF93DF938091C11286FD97
:103910000BC00E94BDA88436910530F447E068EAE8
:1039200077E08AE193E095DFA9DF1091F911DFEFED
:10393000812F8370FF24F394F80E0E946DB2609182
:10394000FA1170E0C0916F172C2F2127522F53705E
:1039500030E040E080E090E0DC011196FB01082EB1
:1039600002C0F595E7950A94E2F7E0FD0EC0892BB9
:1039700019F4511109C009C0C9010A2E02C0959558
:1039800087950A94E2F780FD41E0CD01169721F773
:10399000442309F452C0DC1709F444C0DF3F11F49A
:1039A00022E001C02FEF4EEB57E060E070E087EBC4
:1039B00097E00E94BF3760E070E002E0462F209160
:1039C0006F17EB01219621276115710519F42370FA
:1039D00051F40CC030E00C2E02C0359527950A94A6
:1039E000E2F720FF02C022E001C020E0E091FA11DE
:1039F000F0E0062E02C0F595E7950A94E2F7E0FDA7
:103A000009C0672B11F04D5F01C04F2D68E2802F78
:103A10000E94FA6C0B5EBE01003881F60E94D39FB3
:103A2000C0916F17F2DE811108C005DF833029F0E5
:103A30000E946F13A895DC2F80CF88EC90E0B2DA5B
:103A40008091AB12082E000C990B87539F4FAADA76
:103A5000DF91CF911F910F91FF900C9440ABF894A0
:103A600080914E0E90914F0E789408952F923F9230
:103A70004F925F926F927F928F929F92AF92BF927E
:103A8000CF92DF92EF92FF920F931F93CF93DF932A
:103A9000CDB7DEB7CA56D1090FB6F894DEBF0FBE58
:103AA000CDBF6C968FAF6C97CE0101962E969FAFCF
:103AB0008EAF2E978BE190E060969FAF8EAF6097B0
:103AC00080919307882309F4F1C01092930781E451
:103AD00098E00E942538F4DC62961FAE1EAE629715
:103AE000CE01805B9F4F0E94C7946E969FAF8EAFB2
:103AF0006E9797FDD5C0FC01EE0FFF1FE45FF94EF6
:103B0000E080F180E114F10409F4CAC0D7011C92ED
:103B10006D96BFAD6D97A396BFAFA3978B2F0E94F5
:103B2000DE68857009F0BCC0A396EFADA397E111E4
:103B300016C08091090280FD15C040E050E0BA0136
:103B400089E00E943B668111D8C260E170E0CE013D
:103B50004C960E94D365892B09F0D5C2CEC284E071
:103B600090E002C083E090E0892B09F099C020E842
:103B7000421651046104710408F492C01AC3C801CA
:103B8000880F991FFC01E55EFD4F208031802114D4
:103B900092E0390608F427C3232C3324269491019C
:103BA00040E050E066962CAF3DAF4EAF5FAF6697FA
:103BB000C301B2010E940FD8263F8FE038074105AC
:103BC000510508F020C3A3E0B0E00E9470D8DC01EA
:103BD000CB010196A11DB11DB695A7959795879527
:103BE0000396A11DB11D21E06B962FAF6B978150FD
:103BF0009E4FAF4FBF4F9C01AD0169E05695479571
:103C0000379527956A95D1F76A962CAF3DAF4EAFA1
:103C10005FAF6A9780E290E0A0E0B0E0A7968CAF3B
:103C20009DAFAEAFBFAFA79721E030E040E050E0DE
:103C3000A2962CAF3DAF4EAF5FAFA2976A968CAD08
:103C40009DADAEADBFAD6A97A2962CAD3DAD4EAD6C
:103C50005FADA297820F931FA41FB51FA7962CAD2F
:103C60003DAD4EAD5FADA797280F391F4A1F5B1FB3
:103C7000AB962CAF3DAF4EAF5FAFAB97DA01C9014A
:103C800066962CAD3DAD4EAD5FAD6697820F931F2E
:103C9000A41FB51F481659066A067B0608F0EBC23A
:103CA00081E398E09093CA098093C90900919E1519
:103CB00010919F1527E043E258E061E06C968FADCC
:103CC0006C970E94823A8AE198E00E943537809191
:103CD0009207181614F4109292076C962FAD6C97F9
:103CE000203809F454C030F42036C1F0243609F0ED
:103CF0008BC014C06C963FAD6C973F3B21F03F3CAE
:103D000009F082C00BC080E992E00E94EA998FEF2F
:103D10009FEF90939D1580939C1576C0809190079E
:103D200090919107009709F46FC0019720918E0739
:103D300030918F07AC01421B530B9A014CE1429F1B
:103D4000C001439F900D11248C529B4EFC01238D8A
:103D5000211118C00E94EA9910928F0710928E07C5
:103D600081E090E090939107809390078FEF9FEF11
:103D700090939D1580939C156C968FAD6C970E94C7
:103D800050AB42C06C96FFAD6C97FF3CE9F56C966A
:103D90008FAD6C970E9450AB2091900730919107A6
:103DA0008091161490911714232BC1F4FC01EE0F8F
:103DB000FF1FE65FFB4E2EE038E0318320839C013D
:103DC0002E5F3F4F3093171420931614880F991FBE
:103DD000FC01E45FFB4E85E098E00EC09C012F5F84
:103DE0003F4F3093171420931614880F991FFC012E
:103DF000E65FFB4E8BEF97E09183808384E69FE63E
:103E0000909309148093081404ED14E140919C15DB
:103E100050919D1580918E0790918F0748175907F3
:103E200009F404C1009731F410929D1510929C156D
:103E300084EC33C020919E1530919F152750310995
:103E40008217930751F490939D1580939C1584ECF1
:103E5000F80111928A95E9F724C048175907A0F490
:103E600048EA50E060EF74E184ED94E10E9480D86C
:103E70004AE150E06FEF70E08CE795E10E9491D845
:103E800081E0809397150DC048EA50E064ED74E13D
:103E900080EF94E10E9480D88CE1D8011D928A9530
:103EA000E9F710929F1510929E1560EF74E0CE0115
:103EB0004C960E947C99892B09F0B8C094EDA92EEC
:103EC00094E1B92E552453940CE126E0822E912CD6
:103ED000BE016A5C7F4FCE014C960E948C92892B6A
:103EE00009F0A4C08FAD882309F4A0C08E3229F454
:103EF00021968FAD2197882359F32E96EEACFFAC17
:103F00002E97F7018081811104C09E01215C3F4FF3
:103F10007901F70101900020E9F73197EE19FF09C7
:103F20007B97B0F680919E1590919F150196909386
:103F30009F1580939E151EAD1295117015256090EA
:103F40008E0770908F076114710499F484EDC82E68
:103F500084E1D82E462CD6018C91882309F4C3C461
:103F6000A601B701812F0E949B76882309F4F2C431
:103F7000BAC480919C1590919D1586159705A1F462
:103F8000ACE7CA2EA5E1DA2EB6E07B2ED6018C91E5
:103F9000882309F4C6C4A601B701812F0E94B47614
:103FA000882309F4E3C4BDC48615970500F540E6EF
:103FB00055E1B701812F0E94B476882309F488CF98
:103FC0004CE755E1B701812F0E949B76882309F4C5
:103FD0007FCFECE7F5E1DF01402E1D924A94E9F72F
:103FE000B701CF010E94B6D81093971571CF40EF5B
:103FF00054E1B701812F0E949B76882309F468CF92
:1040000044ED54E1B701812F0E94B476882309F46E
:104010005FCFD501E02F1D92EA95E9F7B70184ED56
:1040200094E10E94B6D81093EF1452CF80908E077F
:1040300090908F0790929D1580929C15E4EDCE2E66
:10404000E4E1DE2EFFEEEF2EF4E1FF2E19E0A12CCD
:10405000B12C1092BC158091900790919107019717
:10406000881999098A159B0511F000E201C002E246
:10407000D6018C918823D9F0F7018081811105C088
:10408000202F4BE5612F0E944A6B202FA601612F44
:104090008091BC150E944E5CD7018C91811107C0A4
:1040A000202F4DE5612F8091BC150E944A6BBFEF18
:1040B000AB1ABB0A185FECE1CE0ED11CFCE1EF0E8F
:1040C000F11C113431F6C659DF4F0FB6F894DEBF3C
:1040D0000FBECDBFDF91CF911F910F91FF90EF9059
:1040E000DF90CF90BF90AF909F908F907F906F9018
:1040F0005F904F903F902F90089501E010E00E9454
:104100002966C80131CD2C8D30E076E035952795B4
:104110007A95E1F78DA19CA121303105B9F4482FA2
:1041200050E04F5F5F4F292F30E0322F2227CA0126
:10413000820F931FA0E0B0E02C013D018AE0440C07
:10414000551C661C771C8A95D1F731C02BA1F4E071
:104150002F9F90011124A9014F5F5F4F292F30E05D
:10416000B6E035952795BA95E1F7240F351F4AA19A
:10417000437050E0542F4427550F550F420F531FE3
:1041800060E070E099A1292F2F709EA1991F9927B7
:10419000991F920F8370880F890F87502A013B0166
:1041A00004C0440C551C661C771C8A95D2F700E0AD
:1041B000A5CFC301B20120ED37E040E050E00E94FE
:1041C0000FD8E1E3F2E000E010E061917191CB01E2
:1041D000A0E0B0E0281739074A075B0708F0CFCC0A
:1041E0000F5F1F4FF2CF2114310449F0A1E82A16C6
:1041F000310408F4D4CC70E8272E312CD0CC222402
:104200002394312CCCCC263F9FEF39074105510533
:1042100008F4B5C3DA01C90142E0880F991FAA1F4B
:10422000BB1F4A95D1F7895F9D4FAF4FBF4F9C0190
:10423000AD0169E056954795379527956A95D1F771
:104240006A962CAF3DAF4EAF5FAF6A9733E06B9687
:104250003FAF6B97A7961CAE1DAE1EAE1FAEA797C5
:1042600080E290E0A0E0B0E0A2968CAF9DAFAEAF50
:10427000BFAFA297E3CCA3963FADA397311167C020
:104280008091090280FD66C080919D1440E050E05D
:10429000BA0182FF25C08DE80E943B66811104C3EC
:1042A0000E94399260E170E0CE014C960E94D36585
:1042B000892B09F4F9C210E30E9439921150E1F7F9
:1042C0008EA182958F7030E1832E912CA12CB12C80
:1042D00004C0880C991CAA1CBB1C8A95D2F731C05B
:1042E00089E00E943B668111DFC260E170E0CE018F
:1042F0004C960E94D365892B09F4D6C290919D14E7
:104300008FA191FFD3C2881F8827881F882E912CE8
:104310004FEF841A940A8EA18F73880E911C880E19
:10432000911C89A590E026E0959587952A95E1F75F
:10433000019702C0880C991C8A95E2F7A12CB12C38
:1043400010E0D12C0E942966812F9D2D05C084E0AC
:1043500090E002C083E090E0892B51F4D501C401C4
:104360000197A109B10981159048A105B10520F077
:10437000812C912C54018394AB968CAD9DADAEAD48
:10438000BFADAB970197A109B109880D991DAA1D71
:10439000BB1DB094A09490948094811C911CA11C8E
:1043A000B11C88229922AA22BB22AB962CAD3DAD2E
:1043B0004EAD5FADAB97821A930AA40AB50A6B960D
:1043C0003FAD6B97333089F4A2968CAD9DADAEAD09
:1043D000BFADA297880D991DAA1DBB1DA2968CAFDB
:1043E0009DAFAEAFBFAFA29710C06A962CAD3DADEA
:1043F0004EAD5FAD6A97280D391D4A1D5B1D6A964B
:104400002CAF3DAF4EAF5FAF6A97D301C201A2960A
:104410002CAD3DAD4EAD5FADA297821B930BA40BAF
:10442000B50B6A962CAD3DAD4EAD5FAD6A97821B64
:10443000930BA40BB50BBC01CD01A7962CAD3DADE4
:104440004EAD5FADA797621B730B840B950B669601
:104450002CAD3DAD4EAD5FAD66970E940FD84901C2
:104460005A016B963FAD6B97323049F446EF841694
:104470004FE09406A104B10408F412CC0DC06B9671
:104480005FAD6B97533041F486EF88168FEF980637
:10449000A104B10408F404CC670192E3C90ED11C55
:1044A00040E052E060E070E0C6010E943F9E4BE0B9
:1044B00050E06CEB74E0C6010E94CA9EF70115AE95
:1044C00082E086AF27AEE05CFF4F6F962FAD6F970F
:1044D00020833196A0963FADA097308381E031963E
:1044E00080836B964FAD6B97433011F082E001C033
:1044F00080E0F701ED5BFF4F108231968083852DC0
:1045000099274114510451E06506710428F431964D
:104510004082319680830AC0F701EE5AFF4F4082F5
:1045200031968083319660823196708280EFF701F8
:10453000E95BFF4F80838FE333968083319610824F
:104540008FEF3196808331961082319610823196AA
:10455000108231961082319610820E94D69E272FAB
:1045600033272C016624772466964CAE5DAE6EAE82
:104570007FAE6697492E5524662477246B964FADFF
:104580006B97F701433009F041C0EB58FF4F608350
:1045900031962083319663965FAD63975083319651
:1045A0004082B29767968FAD679780833196689601
:1045B0009FAD6897908331966996AFAD6997A08358
:1045C00031966A96BFAD6A97B08382E03596808354
:1045D00031961082319610823196108281E03196A8
:1045E00080833196108286E03196808331961082E6
:1045F00080E83D96808389E23296808343E150E0F3
:1046000068EC74E0C70187589F4F23C0E75AFF4FFB
:10461000608331962083319663962FAD6397208314
:1046200031964082749767963FAD67973083319695
:1046300068964FAD6897408380E83D96808389E215
:104640003296808343E150E06CED74E0C701835AF9
:104650009F4F0E94CA9E85E5F701E05DFD4F808374
:104660008AEA3196808301E010E020E030E0A90181
:10467000B6016D968FAD6D970E94A666892B09F0E5
:104680000FCB6B965FAD6B97533051F426E030E063
:1046900040E050E0B6016D968FAD6D970E94A66622
:1046A00040E052E060E070E0C6010E943F9E6B96E1
:1046B0008FAD6B97833069F0813011F480E001C0D9
:1046C0008FEF90EFF70192AB9FEF93AB94AB85AB7D
:1046D00010C080EFF70182AB8FEF83AB84AB85AB6B
:1046E00086AB87AB80AF81AF82AF83AF84AF8FE003
:1046F00085AF01E010E0A2962CAD3DAD4EAD5FADB3
:10470000A297B6016D968FAD6D970E94A666892B14
:1047100009F0C6CA40E052E060E070E0C6010E94C5
:104720003F9E412C512C32014394A2962CAD3DADBD
:104730004EAD5FADA297240D351D461D571D6A96DF
:104740008CAD9DADAEADBFAD6A97481659066A06F1
:104750007B0688F401E010E0B601A3968FADA39725
:104760000E94A666892B09F09BCAFFEF4F1A5F0AC9
:104770006F0A7F0ADACF6B969FAD6B97933021F06B
:10478000A5962EAC3FACA59729013A01AFEF4A1A86
:104790005A0A6A0A7A0A01E010E0B601A3968FADC0
:1047A000A3970E94A666892B09F07ACAB1E02B1A5A
:1047B0003108A301920141F76B96EFAD6B97E3309F
:1047C00009F048C082E5F70182AB83AB81E684AB98
:1047D00091E495ABEA5EFD4F22E72083319620837A
:1047E000319690833196808331968FEF880D808348
:1047F0003196C40101979083F1E08F1A9108A108C6
:10480000B108F701E45EFD4FA0823196B082319687
:1048100082E0808331961082319610823196108228
:104820003F9685E5808331968AEA808321E030E0F7
:1048300040E050E0B6016D968FAD6D970E94A66680
:1048400027E030E040E050E0B6016D968FAD6D9707
:104850000E94A666A3964FACA397411012C0809108
:10486000090280FD11C00E942C66892B21F00E9454
:10487000296600E001C001E010E00E942966C8013D
:1048800005C084E090E002C083E090E0892B09F04D
:1048900007CA80E992E00E94EA998FEF9FEF909318
:1048A0009D1580939C1502CA11E04BCD282F2370D3
:1048B00082958695877090E058E0259F800D911D28
:1048C000112401962EA12C7730E03595279535954A
:1048D00027952F5F3F4F829F4001839F900C929FAF
:1048E000900C11242BCD96E04916A9F0C40186192D
:1048F0009709089FA001099F500D1124BFEF6B1A63
:104900007B0A069DC001079D900D1124B6018C52B3
:104910009B4E0E9480D8F601402E11924A94E9F7EE
:1049200012C0772059F0B72DECE1BE02A00111248E
:1049300060EF74E184ED94E10E9480D8D601E02F0D
:104940001D92EA95E9F7B701C6010E94B6D8F601B3
:10495000138FBECAAFEF6A1A7A0ABCE1CB0ED11C24
:10496000E7E06E16710409F0F5CAB2CA7A94FCE168
:10497000CF1AD10844244A94741008CBA9CADA018A
:10498000C9010296A11DB11D880F991FAA1FBB1F47
:1049900032E06B963FAF6B972AC9EF92FF920F936D
:1049A0001F93CF93DF93182FC62F21E0260F00E02F
:1049B00045E75BE0682F80E00E942B6D8091B30794
:1049C000882369F185E0F82EFC0E98EFE92EE10EC0
:1049D00085E0C89FE0011124CF53D84F288130E0F3
:1049E00004E04F2D6E2D8AE30E94566E4CE36E2D2F
:1049F00087E40E94815D298130E000E44F2D6E2D17
:104A000086E60E94566E4EE3612F88E40E94815D27
:104A10002C8130E04F2D612F86E60E94566EDF918B
:104A2000CF911F910F91FF90EF900895429A8AE2E3
:104A30008A95F1F700C04298089582B94598F6DF4B
:104A4000459A0895BF92CF92DF92EF92FF920F9313
:104A50001F93CF93DF9381E90E9400A7811143C088
:104A600084E98093BC0061E088E40E94AF45E5E002
:104A700096958795EA95E1F79093700880936F0873
:104A800061E088E40E94AF45F5E096958795FA9538
:104A9000E1F720916F0830917008820F931F909377
:104AA000700880936F0860E088E40E94AF45A5E03D
:104AB00096958795AA95E1F790936C0880936B087B
:104AC00060E088E40E94AF45B5E096958795BA9579
:104AD000E1F720916B0830916C08820F931F90933F
:104AE0006C0880936B0881E10E9400A781115FC070
:104AF0000E94EBA6B82E0E94EBA6182F0E94EBA6F0
:104B0000E82E0E94EBA6C82E0E94EBA6D82F0E948A
:104B1000EBA6C82F0E94EBA6F82E0E94EBA6D82E7B
:104B20000E94EBA6082F84E88093BC000E94E6A6B2
:104B30002091BB0084E98093BC00612F70E07B2949
:104B4000EC2DF0E04D2D50E030E080E094E0DC0111
:104B5000A61BB70BB0936E08A0936D08BF017E290A
:104B600070937208609371085F2966E056954795C7
:104B70006A95E1F75093740840937308302B76E000
:104B8000369527957A95E1F7309376082093750846
:104B9000809192086C2F681B80E00E948E148C2FED
:104BA00090E09093930880939208D093680885E9E9
:104BB0000E9400A7811123C084E98093BC0060E0BB
:104BC0008AE40E94AF4535E0969587953A95E1F7DE
:104BD00090936A088093690860E08AE40E94AF4578
:104BE00045E0969587954A95E1F7209169083091BF
:104BF0006A08820F931F90936A088093690885E181
:104C00000E9400A781112DC00E94EBA60E94EBA676
:104C10000E94EBA6182F0E94EBA6C82F0E94EBA6BD
:104C2000D82F84E88093BC000E94E6A62091BB00A8
:104C300084E98093BC004C2F50E030E0512B569516
:104C40004795569547955093740840937308C9014A
:104C50009D2B96958795969587959093760880934A
:104C6000750887E480937C0080917A00806480934B
:104C70007A0080917A0086FDFCCF80917800909137
:104C8000790020917A00206420937A0020917A00A4
:104C900026FDFCCF2091780030917900820F931F80
:104CA0009093780880937708DF91CF911F910F91AF
:104CB000FF90EF90DF90CF90BF900895E82FF0E045
:104CC000E45DFD4E908195959595935D282F220F7B
:104CD000820F981B892F0895CF92DF92EF920F9346
:104CE000CF938091B307882309F46FC020E040E898
:104CF00067E380E00E945E6FC091CF07C43608F082
:104D0000C3E66EE17DE089E30E94565CCC2ED12C97
:104D100002E020E1A60169E389E10E94B55AE12C95
:104D20000FEF27E046E269E38AE10E94286F80E006
:104D3000C5DFC81708F405E5C601880F991F880F5D
:104D4000991F6BE070E00E947ED6462FE12C25E093
:104D50006AE38AE10E94D46EC091CB07C43608F0A2
:104D6000C3E642E25DE069E388E60E94545CCC2E33
:104D7000D12C02E020E1A60169E381E80E94B55A46
:104D8000E12C0FEF27E046E269E381E40E94286FFF
:104D9000C601880F991F880F991F6BE070E00E9471
:104DA0007ED6D62E80E08ADFC81708F405E5E12C10
:104DB00025E04D2D6AE386E68D190E94D46ECF91D1
:104DC0000F91EF90DF90CF90089521E04EE458E0EE
:104DD00069E38AE20E944E5C87E0CF910F91EF90E9
:104DE000DF90CF900C94656A9EE79093960710929F
:104DF0009707109298071092990710929A071092AD
:104E00009B079091C1129871903109F420E0209392
:104E10009C0740939D076E3721F06D3719F46DE5BF
:104E200001C06EE560939E0780939F078EE7809395
:104E3000A0078BE0809395078091C10080628093EA
:104E4000C1000895E1ECF7E086EADF011D928A9542
:104E5000E9F71092B3071092940782E090E091AFC7
:104E600080AF97AB86ABE1E2F8E08081866080831B
:104E700008952F923F924F925F926F927F928F92FE
:104E80009F92AF92BF92CF92DF92EF92FF920F93D9
:104E90001F93CF93DF9300D01F92CDB7DEB78C83E3
:104EA000813659F020F4803611F5CCDF20C02C81FA
:104EB000223699F0233649F01AC081E60E9450ABA1
:104EC00084E89DE50E944F9012C08091910888234C
:104ED00011F0815007C083E005C0809191088330B4
:104EE00021F08F5F8093910802C01092910800E03A
:104EF0002091AB1240E55EE060E080E00E949C6D96
:104F00004091B20721E08091AD12841708F420E0AF
:104F100050E060E084E50E94E16D80915B0E8823A3
:104F200069F04091A7075091A807252F221F22273B
:104F3000221F022F60E080E80E94FF6D80E00E9447
:104F4000656A20919108223008F077C180912A1279
:104F50008295837090E0022E02C0959587950A9401
:104F6000E2F73CE0239F6001112480FD07C0A12CE3
:104F7000B12CA9E02A2E312C512CD4C0C601805B63
:104F8000914F6C01E4E04E2EF5E05F2EF601E95101
:104F9000FC4F108131966081812F0E949F135C012C
:104FA000F601E751FC4F60816095812F0E949F13AD
:104FB0003C0172E0F72EF50C112309F4A6C0A816E7
:104FC000B9060CF0A2C086E0850D849D202C11242A
:104FD0006BEF650D620D00E0212F48EB5AE080E099
:104FE0000E94405CE12C0FEF2F2D45E6622D89E1F8
:104FF0000E94286F81E4810F0E9416A04C016A185C
:105000007B081430A8F1163028F48CEF810F56DE9F
:10501000E82E0EC0812F90E0183060F4069726E04D
:10502000289FF001299FF00D1124EF5DFD4EE080D7
:10503000F12C08C0FC01E455F84F6081812F0E94DB
:105040009F137C01E114F104A9F023E630E0D701BD
:10505000AA19BB090E946AD89301072C000C440BC3
:10506000550B0E9431D8322E33E6331518F003C0A9
:10507000E12CF12C312CD401AA19BB0923E630E034
:105080000E946AD89301770C440B550B0E9431D8CB
:10509000B22E83E6821710F464E6B62E8E149F04B7
:1050A00014F00FEF01C005E51B50123008F4019514
:1050B000FF24F394F20CE12C252D4B2D6F2D8AE16A
:1050C0000E94D46E18E1311610F0B11630F4452D5F
:1050D0006F2D8AE1810F0E94586F175E133699F782
:1050E0003320A1F02A942A9400E025E543E0450D01
:1050F000622D8AE1830D0E94756A20E043E0622DF3
:1051000089E1830D0E945E6F01C05F2C4A9493E099
:10511000C91AD10841103ACFDFDDECE0E51508F0FF
:105120008CC17EC144244A94420C35016C0C7D1C18
:10513000E12CF12CF701E60DF71DE25DFD4E10812B
:10514000112309F476C13394F3E05F1231C040E3D8
:1051500068E08FE30E94586F8091B307882321F1A4
:105160001C3221F566E578E089E30E94565C4091A7
:105170001B0850911C0800E020EB69E388E10E94C5
:10518000B55A40911D0850911E0820EB69E38CE34D
:105190000E94B55A40911F085091200820EB69E306
:1051A00080E60E94B55A3AC097DD44C0112379F1D8
:1051B00081E4810F0E9416A09C0183E0581611F033
:1051C00004E401C000E4198291E49A83E2E8EB83ED
:1051D00088248394912C8C0E9D1E8E0C9F1CF401B0
:1051E00081814FEF410F642D82500E94566E8EEFE9
:1051F000810F823018F4F3E05F12175F00E0212F77
:1052000048EB5AE0622DF40180810E94405CEA94F0
:10521000EF2821F0EE24E394F12C8CCF539420E17D
:10522000220E32E0A30EB11C84E058127BCF87E03F
:105230000E94656A311001C1F3C0223009F0CDC06F
:1052400020912A1222952695269523702F5F00E043
:1052500046EC5BE060E180E00E94405C60912A12D5
:105260006295669566956370862F90E08230910511
:1052700061F0039789F080E190DB10912A1212957A
:105280001695169513701F5F12C020914508309136
:10529000460804E041E106C020913B0830913C08FB
:1052A00004E040E168E08AE30E94566E10E020913D
:1052B00047122770B9F100E046EC5BE060E280E065
:1052C0000E94405C609147126770862F90E08130A9
:1052D00091059CF0833091056CF0039771F4209157
:1052E00023083091240804E042E168E18AE30E9447
:1052F000566E03C0615080E250DB2091410830912E
:10530000420804E844E168E284E00E94566E20917D
:105310003D0830913E0804E043E168E288E50E94E0
:10532000566E0EC0112321F022E0211B88E201C03D
:1053300080E2622F32DB111103C061E080E32DDBDC
:105340008091210882958F7089F197EEE92E97E080
:10535000F92EC12CD12C18E08091210882958F70F4
:1053600090E0C816D906ECF41833D9F08091BC0748
:10537000882331F0F7019081981710F421E301C0E0
:1053800020E3F70141917F0150E0440F551F04E0F5
:10539000612F80E80E94B55A185FFFEFCF1ADF0A2D
:1053A000DBCF4FE268E08CE60E94586F0F900F90C1
:1053B0000F900F90DF91CF911F910F91FF90EF9081
:1053C000DF90CF90BF90AF909F908F907F906F9025
:1053D0005F904F903F902F907FCC66E27DE089E018
:1053E0000E94565C4EE15DE069E08CE30E94545CF3
:1053F0004091D00750E002E020E969E08EE40E948D
:10540000B55A42E25DE069E080E60E94545C40915A
:10541000CC0750E020E969E082E70E94B55A0DC050
:105420002C81233611F082E601C083E68093670861
:1054300004C033E05312EBCE8ACE0F900F900F9042
:105440000F90DF91CF911F910F91FF90EF90DF9020
:10545000CF90BF90AF909F908F907F906F905F9014
:105460004F903F902F9008952F923F924F925F92CE
:105470006F927F928F929F92AF92BF92CF92DF9264
:10548000EF92FF920F931F93CF93DF9300D01F9261
:10549000CDB7DEB790919008913041F008F44AC240
:1054A0009230A9F0933009F436C24BC28E3709F41A
:1054B00048C2E0911616E33140F491E09E0F9093BC
:1054C0001616F0E0E358F74F808382E038C28D373C
:1054D00011F483E034C28E3709F010C280917D0848
:1054E0008D3F09F445C08E3F09F005C2009120129E
:1054F00002950F7010917E08612F81EC97E00E9459
:10550000C7A601111093C1078091C507882311F028
:10551000811710F41093C5070091261202950F70A1
:1055200010917F08612F86EC97E00E94C7A60111B9
:105530001093C6078091CA07882311F0811710F4D1
:105540001093CA07609180088BEC97E00E94C7A671
:105550006091810866958FEC97E00E94C7A684E66B
:105560008093B30780919407805E80939407C3C1B2
:1055700050912A12452F437080917B0890917C08AE
:1055800020917A0830917908569556955370852E5A
:10559000912C52E0850E911C40904812042C000C76
:1055A000550850917E085770A52EB12C1A82198289
:1055B0000AE010E0A2ED2A2EB4E36B2EB8E07B2EB9
:1055C0005EE6E52EF12C6CE3C62ED12CE981FA8142
:1055D000EA15FB0509F487C1413009F07EC16981F4
:1055E0007A816358774FFB0153815E3509F46CC1B2
:1055F000009709F472C187FF05C0F0E65F27805865
:10560000910904C05D3511F4806867C1813091054E
:1056100041F4503408F05FC1252F220F82E090E062
:105620005CC1029709F453C1822F022E000C990B22
:10563000FC01ED52F84F3083DC01AC52B84F5C9363
:10564000283409F439C188F42A3009F46EC030F4E2
:10565000243009F459C02630B9F13DC12C3009F489
:10566000D5C0203209F49EC036C1203509F46EC081
:1056700038F42A3409F420C12C3409F41DC12BC19B
:105680002A3609F489C0263709F025C180914908D6
:1056900090914A08289EB001299E700D1124E09136
:1056A0004708F0914808E69DC001E79D900DF69DE2
:1056B000900D1124860F971FB7010E9491D6709309
:1056C00046086093450807C1C601B4010E947ED612
:1056D000E091D907F091DA076E9FC0016F9F900D9E
:1056E0007E9F900D11249093DA078093D9076091E3
:1056F0004F08709150086817790708F0ECC0909334
:10570000500880934F08E7C08091D7079091D80741
:105710006091510870915208681779070CF0DBC04E
:105720009093520880935108D6C08091DD079091E4
:10573000DE076091530870915408681779070CF0E0
:10574000CAC09093540880935308C5C08091230821
:10575000909124081816190654F4840D951D1816F6
:1057600019062CF4909324088093230804C0109207
:1057700024081092230880912308909124086091B6
:105780006108709162086817790708F0A4C09093C7
:105790006208809361089FC080912108886080938F
:1057A000210899C06091D3077091D4078091F307C5
:1057B0009091F407672B41F466277727681B790BD4
:1057C0007093D4076093D3076091D3077091D40787
:1057D000860F971F9093F4078093F30760914D080D
:1057E00070914E086817790724F490934E088093BF
:1057F0004D0860914B0870914C08861797070CF084
:105800006AC090934C0880934B0865C06091DF0795
:105810007091E007FB01E07FFF27CF01F4E0969550
:105820008795FA95E1F79C838B830C9708F053C01A
:105830003B8080912108A82FA295AF70B0E0EB814A
:10584000FC81EA17FB0744F09E2F9F5F9295907FA3
:105850008F70892B80932108CB018F709927B82FE7
:10586000AA27872F99278A0F9B1FB8010E9491D6DC
:10587000AB81BC81AF53B84FFD0166A38091220874
:10588000882331F0681720F080913A08381223C03D
:10589000FB81F0933A086093220880915B08909115
:1058A0005C087727009719F068177907A4F47093BC
:1058B0005C0860935B080FC080819181B8010E94F1
:1058C0007ED67183608307C081E090E006C0352FEB
:1058D00083E090E002C080E090E0E981FA813196B7
:1058E000FA83E98373CE90937C0880937B0820939E
:1058F0007A08309379081092900823C0E091161628
:10590000E331F8F491E09E0F90931616F0E0E3581F
:10591000F74F808316C0E0911616E33108F0D5CD1D
:1059200091E09E0F90931616F0E0E358F74F90E247
:105930008927CACD8E3729F41092161681E08093FC
:1059400090080F900F900F900F90DF91CF911F91C3
:105950000F91FF90EF90DF90CF90BF90AF909F900E
:105960008F907F906F905F904F903F902F90089511
:10597000CF92DF92EF92FF920F931F938B01770FDD
:10598000220B330B46E0849FC0011124FC01E15E31
:10599000FD4E40816181562F5F7064E0440F551FBA
:1059A0006A95E1F774E0559547957A95E1F7052EEC
:1059B000000C660B770B68017901C40ED51EE61E3C
:1059C000F71EA7019601FC01E25EFD4EA081B0E04A
:1059D000FC01ED5DFD4E80818295869586958370F4
:1059E00002C0AA0FBB1F8A95E2F70E9470D8660F0B
:1059F000771F881F991F23E330E040E050E00E94AA
:105A000031D8C9011F910F91FF90EF90DF90CF9097
:105A100008951F920F920FB60F9211240BB60F929A
:105A20008F93EF93FF93E0919507EE2351F0E150B0
:105A3000E0939507F0E0EA56F84F80818093C60026
:105A400005C08091C1008F7D8093C100FF91EF91CF
:105A50008F910F900BBE0F900FBE0F901F90189557
:105A60001F920F920FB60F9211240BB60F922F9325
:105A70003F934F935F936F937F938F939F93AF93D6
:105A8000BF93EF93FF932091960030919700809100
:105A900071008F7D8093710078948091F4089091CB
:105AA000F508A901481B590BCA01969587953093B3
:105AB000F5082093F4089C01215A3F4027393A43C6
:105AC00020F481E08093F30832C0E091F3082FEFD7
:105AD0002E0F283060F59C01215233402737354086
